:1000000050C002C269C068C067C066C065C064C035
:1000100063C062C061C060C05FC05EC05DC00403F9
:1000200009042203650064007900350035003500BD
:10003000400067006D00610069006C002E006300E5
:100040006F006D0014034800490044005200650031
:100050006D006F00740065001201100100000008BF
:10006000C016DF05000101020001090222000101A2
:1000700000800A09040000010300000009210101B9
:100080000001221600070581030800640600FF092D
:1000900001A101150026FF007508950809008202DC
:1000A00001C011241FBECFE5D1E0DEBFCDBF10E0FF
:1000B000A0E6B0E0E8E4FEE002C005900D92A236B2
:1000C000B107D9F710E0A2E6B0E001C01D92A63D4D
:1000D000B107E1F73DD3B6C693CF85B7826085BF40
:1000E0008BB780648BBF8BE480938C008AE5809310
:1000F0008B0008951F93DC01162F80918B0084FFE5
:1001000007C080918C0098E8892780938C0003C0F9
:100110008AE580938B00912FEDE8F0E08D9181933B
:1001200091501916DCF38DE890E0612F56D11C5FD9
:1001300010938B001F9108951F93CF93DF936091CD
:100140009C00635067FDBDC080919900CCE0D0E079
:10015000C81BD109C056DF4F809198008D3209F03D
:100160009EC0683009F0ABC083EC809380008AE5C4
:1001700080936000109263008881807639F0CE0110
:10018000D4D2282F8F3F09F479C07FC09A81109272
:1001900089008981882321F410928A0022E067C0B7
:1001A000853019F490939D0061C0863009F04AC0F3
:1001B0008B81813041F488E590E090939B0080939F
:1001C0009A0022E13BC0823019F48AE690E011C027
:1001D0008330F9F48A81882341F48EE190E0909392
:1001E0009B0080939A0024E029C0813041F482E290
:1001F00090E090939B0080939A0022E21FC082308F
:10020000E1F484E490E090939B0080939A0024E1D1
:1002100015C0813241F48CE790E090939B0080936D
:100220009A0029E00BC0823241F48CE890E0909370
:100230009B0080939A0026E101C020E080E4809337
:10024000630023C0883021F421E08FE990E011C0E1
:10025000893019F490939F0009C08A3011F421E08D
:1002600006C08B3019F48BE480938C0020E089E881
:1002700090E090939B0080939A0007C0888187FD4F
:100280002E8180E88093630006C08F81882319F453
:100290008E81821708F0822F8093610010C08091B8
:1002A000630087FF0CC0CE011CD28F3F21F48EE18A
:1002B0008093600004C0882311F0109261001092B6
:1002C0009C008091600084FF58C0809161008F3F46
:1002D00009F453C0182F893008F018E0811B80936F
:1002E00061008091800098E8892780938000112325
:1002F00091F18091630087FF08C081E890E0612F51
:10030000E1D1182F893098F526C020919A003091BC
:100310009B0086FF0DC0A1E8B0E080E090E0F9010D
:10032000E80FF91FE491ED9301961817C1F708C083
:10033000D901912FE1E8F0E08D9181939150E1F79F
:100340001150812F90E01F5F0196820F931F9093B1
:100350009B0080939A0081E890E0612F3ED0612F4E
:100360006C5F6C3041F08FEF8093610004C08FEFC1
:10037000809361006EE16093600094E186B38670C3
:1003800031F49150D9F710929D001092970010E02F
:10039000992309F411E080916200811729F011235B
:1003A00009F454D210936200DF91CF911F91089508
:1003B000A82FB92F80E090E041E050EA609530E04E
:1003C00009C02D9182279795879510F0842795274E
:1003D000305EC8F36F5FA8F30895EADF8D939D93B5
:1003E0000895A6E088279927AA9569F00197E1F377
:1003F000B199FCCFB19BFECF81E09927A6B30196BE
:1004000011F0A670D9F70895CF93CFB7CF93C395C6
:10041000B19BE9F7B19B0BC0B19B09C0B19B07C071
:10042000B19B05C0B19B03C0B19B01C0D5C00F9269
:10043000DF93C0919900DD27C056DF4F012EB19B9D
:1004400003C0DF910F90E6CF2F930F931F934F932D
:100450002FEF4F6F06B301FB20F95F933F9350E0FE
:100460003BE065C016B30126502951FDC89556B32F
:10047000012701FB25F92F7306B3B1F05027102790
:1004800011FB26F906B22230F0F000C016B30127A6
:1004900001FB27F90126502906B22430E8F54F77F1
:1004A000206816B30000F6CF50274F7D206206B2B9
:1004B000102F000000C006B300265029102711FBA2
:1004C00026F906B2E2CF4F7B06B3206400C0DACF34
:1004D00001265029167006B269F14E7F2160012F66
:1004E00016B328C0002650294D7F06B22260102F77
:1004F00029C0012650294B7F06B22460012F2DC050
:1005000016B301265029477F2860000006B22EC08E
:100510004F7E06B3206130C0422706B349930026C0
:100520005029102706B24FEF11FB20F9297F16B38F
:1005300079F2167059F10126502906B2012701FB04
:1005400021F9237F06B371F2002650293150D0F0F3
:1005500006B2102711FB22F9277E16B351F20126AD
:100560005029012701FB06B223F92F7C49F2000034
:1005700006B3102711FB24F90026502906B22F7963
:1005800039F270CF10E41ABF002719C03B503195E3
:10059000C31BD04010E41ABF0881033C09F10B349F
:1005A000F9F0209197001981110F1213EDCF4A81B4
:1005B000441F093651F10D3211F0013E29F7009325
:1005C0009E003F915F914F911F910F912F91DF916D
:1005D0000F90CAB7C6FD1BCFCF91CFBFCF91189553
:1005E00020919E00222369F310919C00112379F53C
:1005F00034307AF130939C00209398001091990048
:100600003BE0311B3093990024C000919C000130E5
:10061000F4F40AE54F7049F43091600034FD1AC0DB
:1006200000936000C0E8D0E019C030918B0034FD29
:1006300011C000938B00CCE8D0E010C0052710E07B
:1006400000C021C0052710E0C89508BB14C03AE5DA
:1006500001C032ED032EC0E0D0E032E017B31660E7
:10066000C19A08B317BB56E020E84FEF20FF0527DB
:1006700008BB279517951C3F28F700004552B0F797
:1006800020FF0527279508BB17951C3FB8F6299131
:100690003A9561F7097F10919D00110F08BBC25078
:1006A000D04011F01093970010E41ABF026017B306
:1006B000197F402F497F54E05A95F1F708BB17BBCB
:1006C00048BB7FCF90917500961708F4692F8091F1
:1006D0007400860F80937400961B90937500862F8C
:1006E0000895DC01409175004423E1F0461708F4B9
:1006F000642F30917400262F932F08C0E92FF0E06B
:10070000E459FF4F8D91808321509F5F2223B1F7E1
:10071000842F861B80937500360F3093740090E011
:10072000882309F491E0892F0895FC018081807667
:10073000803261F48181813011F0893039F488E0B0
:1007400080937500109274008FEF089580E00895F3
:100750001F938FEF91E060D38F3F09F081BF8EE050
:1007600028E130E00FB6F894A89521BD0FBE81BDF9
:1007700080E187BBC498B89AC098AFDCB99A20E0F2
:100780004DE150E104C0A895CA010197F1F721504D
:10079000D1F7B9982FD3B89A789410E0A895CCDC0B
:1007A00090916C00992391F080917500882371F4E9
:1007B000112309F41AE0C09A892F6EE670E0409187
:1007C0006D00A1D2115011F410926C0080E590E000
:1007D0008BD0C0988091B600823079F5C09A809114
:1007E000B700809364008091B80080936500809189
:1007F000B80090E0079623E0959587952A95E1F754
:10080000982F8C3108F09CE1A6E6B0E020E030E0C3
:1008100007C0F901EA54FF4F84818D932F5F3F4F4A
:100820002917B8F306C0E92FF0E0EA54FF4F14820D
:100830009F5F9C31C1F71092B60080918B0084FFBE
:10084000ADCF84E690E068E055DCA8CFDF92EF9270
:10085000FF920F931F93CF93DF9300E030E8D32EE6
:10086000EE24FF241D2D100F11BFBBDDEC0189E02C
:10087000C433D8070CF0102FD6940894E11CF11C57
:1008800088E0E816F10411F0012FECCF115011BFF0
:100890001F5FE12EFF240894E11CF11C13C0A1DDB1
:1008A0009C012453394037FF03C0309521953F4FB9
:1008B0002C173D0714F09E0101C011B781B78F5F5F
:1008C00081BFE90181B790E0E816F90644F711BF4E
:1008D00061B78FEF91E0A8D2DF91CF911F910F9177
:1008E000FF90EF90DF9008952F923F924F925F928A
:1008F0006F927F928F929F92AF92BF92CF92DF9230
:10090000EF92FF920F931F93CF93DF935C01809040
:100910007E00509176000091770010917800C09190
:100920007900D0917A0040917C00E0907F00F090B7
:100930007D0090907B0062E0762E30E1632E55249E
:10094000539424E0422E33243A9490E2292EB0C1ED
:1009500008B601FE05C0839478BE0894A108B108CA
:1009600008B604FEACC0EE2011F0EA94A7C0442300
:1009700009F4A4C09091B6002091B700943009F01A
:1009800063C00CB404FE2FC08CB58F7E8CBDE0918B
:10099000B9008091B800E81708F081C023FF03C0B8
:1009A00025ED34E049C0E695E695E695AE2FB0E03A
:1009B000FD01EA54FF4F948122FF08C090FD03C05F
:1009C0002CE633E00AC024E43AE007C090FD03C0FF
:1009D00026E834E002C022E93DE09695AA54BF4FD4
:1009E00014969C9329C08CB580618CBD8091B90010
:1009F0008F5F8093B900E091B90023FF16C0E695A0
:100A0000E695E695AE2FB0E0FD01EA54FF4F8481F4
:100A100080FD03C025ED34E002C02AEA39E0869566
:100A2000AA54BF4F14968C9307C021FD03C02CE637
:100A300033E002C026E834E082B7B901680F711DC7
:100A4000CB0169BDE92E3AC0933049F58CB58F7E54
:100A50008CBD243029F0283069F425ED34E013C032
:100A60008091B800882319F420E63BE10CC020EB0C
:100A70003DE009C08091B800882319F428E132E1F3
:100A800002C020E334E282B7B901680F711DCB01C7
:100A900069BDE92E4092B6003092B9000FC0AB9A02
:100AA000913039F48091B9008093B8007092B6000B
:100AB00002C01092B60040E09924939468BE0AB632
:100AC00005FEF6C0992009F4E6C082B7D82CCC24E4
:100AD000682F70E06C297D298F2D992787FD9095CF
:100AE000B39B40C080FFD7C082B790E08D5A9F4C27
:100AF00089BDE92ECB018C1B9D0BEC018091B700C9
:100B0000883009F0CAC093E0CD3DD90708F4C5C0CC
:100B1000ECE0C531DE0708F0C0C0E091B900E69511
:100B2000E695E695EC3108F0B8C0AE2FB0E0FD01D7
:100B3000EA54FF4F948147E0CF33D40718F0852F54
:100B4000892B03C0852F80958923AA54BF4F149603
:100B50008C93550F09F451E08091B9008F5F809319
:100B6000B9009BC081FF97C08091B600823008F029
:100B700098C09B01201B310BCE018E5C9A4385529D
:100B80009B4110F040E010C0C90184529B41895143
:100B9000924110F442E001C040E0C90182599D40F9
:100BA0008D50994008F443E0CE018C519141855F0E
:100BB000974170F4C9018E58984085549A4008F4C2
:100BC00044E0C9018C5191418958944108F445E0B1
:100BD000CE018F579E408B5A994040F4C9018F59DE
:100BE00093408C56924010F448E002C0442351F0E8
:100BF0004093B7001092B9005092B600EB01B801D3
:100C000051E051C08091B600813009F041C0E091BF
:100C1000B900E695E695E695EC3108F042C0AE2FB6
:100C2000B0E0FD01EA54FF4F94818091B70082301B
:100C300059F4CA5CD64060F584E12C35380740F59C
:100C40002C50394080F00CC08430E9F4C352D540B8
:100C5000F8F48FE027363807D8F4285D364018F0CE
:100C6000852F892B03C0852F80958923AA54BF4FD8
:100C700014968C93550F09F451E08091B9008F5F61
:100C80008093B9000EC0883019F42054374048F0E2
:100C90001092B60006C0B80109C041E082E0F82E0B
:100CA00005C0EB01B80140E0FF24F3942ABE8B019C
:100CB0001A141B040CF44CCE80927E0050937600E4
:100CC0001093780000937700D0937A00C093790056
:100CD00040937C00E0927F00F0927D0090927B0038
:100CE000DF91CF911F910F91FF90EF90DF90CF9008
:100CF000BF90AF909F908F907F906F905F904F903C
:100D00003F902F900895282F562FE72F483E08F048
:100D10006DC08091B600882309F068C0243081F04E
:100D2000283001F1223009F061C0442319F040322B
:100D300009F05CC088ED8DBD1FBC60E678E41DC085
:100D4000842F81508F3208F451C0842F90E0877037
:100D50009070892B09F04AC088ED8DBD1FBC60E6FC
:100D60007BE10BC04C3021F04F3011F04431F1F5F4
:100D70008CEC8DBD1FBC64E573E110927B00209369
:100D8000B700283011F0842F02C0842F8150809347
:100D9000B800842F90E00796F3E095958795FA9533
:100DA000E1F7482F252F3E2FC901DC0120E030E07C
:100DB00007C08D91F901EA54FF4F84832F5F3F4FA5
:100DC0002417B8F383E08093B6008CB580618CBDA6
:100DD00082B79B01280F311DC90129BD90937F0067
:100DE00081E080937C0021E030E002C020E030E030
:100DF000C90108951ABC92E093BF90BF80E48CBDF6
:100E000086E48BBDBC9A1092B60090937D00AB9A9D
:100E100081E080937B000895E199FECF1FBA8EBBDD
:100E2000E09A99278DB30895262FE199FECF1CBA39
:100E30001FBA8EBB2DBB0FB6F894E29AE19A0FBE93
:080E400001960895F894FFCF1C
:020E48005AFF4F
:00000001FF
